7303320000000200000090020051022244467PR20076510010412281000000000116000000000000116000000000000              fra.01200507152005112800000000011600004                    07000000000000008120000000000000000000                                         00000000N  00000000000000000000                                        O                    000000000  0                                                                                                                                                                                                                                                      000
7303320000000201000090020050000010000400000000011600000                    00000000000000000000NN                                                                                                                                                                                                                   DESCRIPCION MOVIMIENTO F_DETALLE00000000000                                                                                                                                                                                                                                                      000
730332000000020400009002005000001200511280400000000000000116000                                            DESCR PAGO/COBRO                                00000000                                                                                                                                                                                         000                                                                                                                                                                                                                                                      000
7303320000000240000090020051003901420eR20076510010412281000000000116000000000000116000000000000             fra IVA200507182005112800000000011600004                    08000000000000009280000000000000000000                                         00000000N  00000000000000000000                                        O                    000000000  0                                                                                                                                                                                                                                                      000
7303320000000241000090020050000010000200000000011600000                    00000000000000000000NN                                                                                                                                                                                                                   DESCRIPCION MOVIMIENTO F_DETALLE00000000000                                                                                                                                                                                                                                                      000
730332000000024400009002005000001200511280400000000000000116000                                            DESCR PAGO/COBRO                                00000000                                                                                                                                                                                         000                                                                                                                                                                                                                                                      000
7303320000000290000090020051022244467PR20076510010412281000000000303000000000000303000000000000             325/897200507132005112800000000030300004                    07000000000000021210000000000000000000                                         00000000N  00000000000000000000                                        O                    000000000  0                                                                                                                                                                                                                                                      000
7303320000000291000090020050000010000000000000030300000                    00000000000000000000NN                                                                                                                                                                                                                   DESCRIPCION MOVIMIENTO F_DETALLE00000000000                                                                                                                                                                                                                                                      000
730332000000029400009002005000001200511280400000000000000303000                                            DESCR PAGO/COBRO                                00000000                                                                                                                                                                                         000                                                                                                                                                                                                                                                      000
