7301420000000380000090020072 B84553429R20060013010401281000000000001160000000000001160000000000PRUEBA              200705012007052200000000000000000                    00000000000000000000000000000000000000        1003820036N1003820036N           00000000NNN00000000000000000000                                        O                    000000000  0                                                                                                                                                                                                                                                      000
7301420000000381000090020070000011111100000000000100001GENERAL             16000000000000000160SN                                                                                                                                                                                                                   DESCRIPCION MOVIMIENTO F_DETALLE00000000000                                                                                                                                                                                                                                                      000
73014200000003820000900200700000100009011100002390100000000000116000000 0                                                                                                                                                                                                                                                                               0000000                                                                                                                                                                                                                                                      000
730142000000038400009002007000001200705220400000000000000001160                                            DESCR PAGO/COBRO            2038119990600030571600000000                                                                                                                                                                                         000                                                                                                                                                                                                                                                      000