730046000000029000009002006           R20076500000400281000000000303000000000000303000000000000             325/897200507132006021500000000000000004ARRENDADOR CEUTA,MEL07500000000000000000000000000000000000                                         00000000N  00000000000000000000                                        O                    000000000  0                                                                                                                                                                                                                                                      001
730046000000029400009002006000001200602150400000000000000303000                                            DESCR PAGO/COBRO                                00000000                                                                                                                                                                                         000                                                                                                                                                                                                                                                      801
730046000000020000009002006           R20076500000400281000000000116000000000000116000000000000              fra.01200507152006021500000000000000004ARRENDADOR CEUTA,MEL07500000000000000000000000000000000000                                         00000000N  00000000000000000000                                        O                    000000000  0                                                                                                                                                                                                                                                      015
730046000000020400009002006000001200602150400000000000000116000                                            DESCR PAGO/COBRO                                00000000                                                                                                                                                                                         000                                                                                                                                                                                                                                                      802
7300460000001900000090020061047357109vR20076500000400281000000000100000000000000100000000000000                   1200511232006021500000000000000000                    00000000000000000000000000000000000000                                         00000000N  00000000000000000000                                        O                    000000000  0                                                                                                                                                                                                                                                      003
7300460000001901000090020060000010001000000000010000001EXENTO              00000000000000000000NN                                                                                                                                                                                                                   DESCRIPCION MOVIMIENTO F_DETALLE00000000000                                                                                                                                                                                                                                                      101
730046000000190400009002006000001200602150400000000000000100000                                            DESCR PAGO/COBRO                                00000000                                                                                                                                                                                         000                                                                                                                                                                                                                                                      803
7300460000000240000090020061003901420ER20076500000400281000000000116000000000000116000000000000             fra IVA200507182006021500000000000000004ARRENDADOR          15000000000000000000000000000000000000                                         00000000N  00000000000000000000                                        O                    000000000  0                                                                                                                                                                                                                                                      020
730046000000024400009002006000001200602150400000000000000116000                                            DESCR PAGO/COBRO                                00000000                                                                                                                                                                                         000                                                                                                                                                                                                                                                      801
