730061000000029000009002006           R20076500000400281000000000303000000000000303000000000000325/897             200507132006030200000000000000004ARRENDADOR CEUTA,MEL07500000000000000000000000000000000000        1003820036N1003820036N           00000000NNN00000000000000000000                                        O                    000000000  0                                                                                                                                                                                                                                                      000
730061000000029400009002006000001200603020400000000000000303000                                            DESCR PAGO/COBRO                                00000000                                                                                                                                                                                         000                                                                                                                                                                                                                                                      000
730061000000020000009002006           R20076500000400281000000000116000000000000116000000000000fra.01              200507152006030200000000000000004ARRENDADOR CEUTA,MEL07500000000000000000000000000000000000        1003820036N1003820036N           00000000NNN00000000000000000000                                        O                    000000000  0                                                                                                                                                                                                                                                      000
730061000000020400009002006000001200603020400000000000000116000                                            DESCR PAGO/COBRO                                00000000                                                                                                                                                                                         000                                                                                                                                                                                                                                                      000
7300610000001900000090020061047357109vR200765000004002810000000001000000000000001000000000000001                   200511232006030200000000000000000                    00000000000000000000000000000000000000        1003820036N1003820036N           00000000NNN00000000000000000000                                        O                    000000000  0                                                                                                                                                                                                                                                      000
7300610000001901000090020060000010001000000000010000001EXENTO              00000000000000000000NN                                                                                                                                                                                                                   DESCRIPCION MOVIMIENTO F_DETALLE00000000000                                                                                                                                                                                                                                                      000
730061000000190400009002006000001200603020400000000000000100000                                            DESCR PAGO/COBRO                                00000000                                                                                                                                                                                         000                                                                                                                                                                                                                                                      000
7300610000000240000090020061003901420ER20076500000400281000000000116000000000000116000000000000fra IVA             200507182006030200000000000000004ARRENDADOR          15000000000000000000000000000000000000        1003820036N1003820036N           00000000NNN00000000000000000000                                        O                    000000000  0                                                                                                                                                                                                                                                      000
730061000000024400009002006000001200603020400000000000000116000                                            DESCR PAGO/COBRO                                00000000                                                                                                                                                                                         000                                                                                                                                                                                                                                                      000
730061000000029000009002006           R20076500000400281000000000303000000000000303000000000000325/897             200507132006030200000000000000004ARRENDADOR CEUTA,MEL07500000000000000000000000000000000000        1003820036N1003820036N           00000000NNN00000000000000000000                                        O                    000000000  0                                                                                                                                                                                                                                                      000
730061000000029400009002006000001200603020400000000000000303000                                            DESCR PAGO/COBRO                                00000000                                                                                                                                                                                         000                                                                                                                                                                                                                                                      000
730061000000020000009002006           R20076500000400281000000000116000000000000116000000000000fra.01              200507152006030200000000000000004ARRENDADOR CEUTA,MEL07500000000000000000000000000000000000        1003820036N1003820036N           00000000NNN00000000000000000000                                        O                    000000000  0                                                                                                                                                                                                                                                      000
730061000000020400009002006000001200603020400000000000000116000                                            DESCR PAGO/COBRO                                00000000                                                                                                                                                                                         000                                                                                                                                                                                                                                                      000
7300610000001900000090020061047357109vR200765000004002810000000001000000000000001000000000000001                   200511232006030200000000000000000                    00000000000000000000000000000000000000        1003820036N1003820036N           00000000NNN00000000000000000000                                        O                    000000000  0                                                                                                                                                                                                                                                      000
7300610000001901000090020060000010001000000000010000001EXENTO              00000000000000000000NN                                                                                                                                                                                                                   DESCRIPCION MOVIMIENTO F_DETALLE00000000000                                                                                                                                                                                                                                                      000
730061000000190400009002006000001200603020400000000000000100000                                            DESCR PAGO/COBRO                                00000000                                                                                                                                                                                         000                                                                                                                                                                                                                                                      000
7300610000000240000090020061003901420ER20076500000400281000000000116000000000000116000000000000fra IVA             200507182006030200000000000000004ARRENDADOR          15000000000000000000000000000000000000        1003820036N1003820036N           00000000NNN00000000000000000000                                        O                    000000000  0                                                                                                                                                                                                                                                      000
730061000000024400009002006000001200603020400000000000000116000                                            DESCR PAGO/COBRO                                00000000                                                                                                                                                                                         000                                                                                                                                                                                                                                                      000